{
  "fileName": "Jerry.sol",
  "contractName": "Jerry",
  "source": "//SPDX-License-Identifier: MIT\npragma solidity ^0.6.0;\n\n// import \"@openzeppelin/contracts-ethereum-package/contracts/access/Ownable.sol\";\nimport \"@openzeppelin/contracts-ethereum-package/contracts/math/SafeMath.sol\";\n// import \"@openzeppelin/contracts-ethereum-package/contracts/Initializable.sol\";\n\ncontract Jerry {\n  using SafeMath for uint256;\n\n  uint256 private value;\n  uint256 private multiplier;\n\n  event ValueChanged(uint256 newValue);\n  event MultiplierChanged(uint256 newValue);\n\n  function storeValue(uint256 newValue) public {\n    value = newValue;\n    emit ValueChanged(newValue);\n  }\n\n  function changeMultiplier(uint newValue) public {\n    multiplier = newValue;\n    emit MultiplierChanged(newValue);\n  }\n\n  function retrieveValue() public view returns (uint256) {\n    return value;\n  }\n\n  function retrieveProduct() public view returns (uint256) {\n    return value.mul(multiplier);\n  }\n}",
  "sourcePath": "contracts/Jerry.sol",
  "abi": [
    {
      "anonymous": false,
      "inputs": [
        {
          "indexed": false,
          "internalType": "uint256",
          "name": "newValue",
          "type": "uint256"
        }
      ],
      "name": "MultiplierChanged",
      "type": "event"
    },
    {
      "anonymous": false,
      "inputs": [
        {
          "indexed": false,
          "internalType": "uint256",
          "name": "newValue",
          "type": "uint256"
        }
      ],
      "name": "ValueChanged",
      "type": "event"
    },
    {
      "inputs": [
        {
          "internalType": "uint256",
          "name": "newValue",
          "type": "uint256"
        }
      ],
      "name": "changeMultiplier",
      "outputs": [],
      "stateMutability": "nonpayable",
      "type": "function"
    },
    {
      "inputs": [],
      "name": "retrieveProduct",
      "outputs": [
        {
          "internalType": "uint256",
          "name": "",
          "type": "uint256"
        }
      ],
      "stateMutability": "view",
      "type": "function"
    },
    {
      "inputs": [],
      "name": "retrieveValue",
      "outputs": [
        {
          "internalType": "uint256",
          "name": "",
          "type": "uint256"
        }
      ],
      "stateMutability": "view",
      "type": "function"
    },
    {
      "inputs": [
        {
          "internalType": "uint256",
          "name": "newValue",
          "type": "uint256"
        }
      ],
      "name": "storeValue",
      "outputs": [],
      "stateMutability": "nonpayable",
      "type": "function"
    }
  ],
  "bytecode": "0x608060405234801561001057600080fd5b5061026f806100206000396000f3fe608060405234801561001057600080fd5b506004361061004c5760003560e01c806366bfdb8f146100515780637221a26a1461006f5780638bdc4f231461009d578063ced92670146100bb575b600080fd5b6100596100e9565b6040518082815260200191505060405180910390f35b61009b6004803603602081101561008557600080fd5b8101908080359060200190929190505050610107565b005b6100a5610148565b6040518082815260200191505060405180910390f35b6100e7600480360360208110156100d157600080fd5b8101908080359060200190929190505050610151565b005b600061010260015460005461019290919063ffffffff16565b905090565b806000819055507f93fe6d397c74fdf1402a8b72e47b68512f0510d7b98a4bc4cbdf6ac7108b3c59816040518082815260200191505060405180910390a150565b60008054905090565b806001819055507f0e17105029b990538e803a7a35f7c4fb0df74fcf27a15b12c46d0c6a59f82760816040518082815260200191505060405180910390a150565b6000808314156101a55760009050610212565b60008284029050828482816101b657fe5b041461020d576040517f08c379a00000000000000000000000000000000000000000000000000000000081526004018080602001828103825260218152602001806102196021913960400191505060405180910390fd5b809150505b9291505056fe536166654d6174683a206d756c7469706c69636174696f6e206f766572666c6f77a264697066735822122020ed22bff8bbe7e82d08e05fcf60555f8001db116fa260f4f4d4f0b357d4315d64736f6c634300060c0033",
  "compiler": {
    "name": "solc",
    "version": "0.6.12+commit.27d51765.Emscripten.clang",
    "optimizer": {
      "enabled": false,
      "runs": 200
    },
    "evmVersion": "petersburg"
  }
}